

Microchip MPLAB XC8 Assembler V2.10 build 88905656 
                                                                                                           Mon May 11 00:29:13 2020


     1                           	processor	16F15356
     2                           	opt	pw 132
     3                           	psect	config,global,class=CONFIG,delta=2
     4                           	psect	idloc,global,class=IDLOC,delta=2
     5                           	psect	code,global,class=CODE,delta=2
     6                           	psect	powerup,global,class=CODE,delta=2
     7                           	psect	reset_vec,global,class=CODE,delta=2
     8                           	psect	maintext,global,class=CODE,delta=2
     9                           	psect	eeprom_data,global,class=EEDATA,space=3,delta=2
    10                           	psect	strings,global,reloc=256,class=CODE,delta=2
    11                           	psect	intentry,global,class=CODE,delta=2
    12                           	psect	functab,global,class=ENTRY,delta=2
    13                           	psect	init,global,class=CODE,delta=2
    14                           	psect	cinit,global,class=CODE,delta=2
    15                           	psect	text,global,class=CODE,delta=2
    16                           	psect	end_init,global,class=CODE,delta=2
    17                           	psect	clrtext,global,class=CODE,delta=2
    18                           	psect	stack,global,class=STACK,space=2,delta=1
    19                           	psect	common,global,class=COMMON,space=1,delta=1
    20                           	psect	bank0,global,class=BANK0,space=1,delta=1
    21                           	psect	bank1,global,class=BANK1,space=1,delta=1
    22                           	psect	bank2,global,class=BANK2,space=1,delta=1
    23                           	psect	bank3,global,class=BANK3,space=1,delta=1
    24                           	psect	bank4,global,class=BANK4,space=1,delta=1
    25                           	psect	bank5,global,class=BANK5,space=1,delta=1
    26                           	psect	bank6,global,class=BANK6,space=1,delta=1
    27                           	psect	bank7,global,class=BANK7,space=1,delta=1
    28                           	psect	bank8,global,class=BANK8,space=1,delta=1
    29                           	psect	bank9,global,class=BANK9,space=1,delta=1
    30                           	psect	bank10,global,class=BANK10,space=1,delta=1
    31                           	psect	bank11,global,class=BANK11,space=1,delta=1
    32                           	psect	bank12,global,class=BANK12,space=1,delta=1
    33                           	psect	bank13,global,class=BANK13,space=1,delta=1
    34                           	psect	bank14,global,class=BANK14,space=1,delta=1
    35                           	psect	bank15,global,class=BANK15,space=1,delta=1
    36                           	psect	bank16,global,class=BANK16,space=1,delta=1
    37                           	psect	bank17,global,class=BANK17,space=1,delta=1
    38                           	psect	bank18,global,class=BANK18,space=1,delta=1
    39                           	psect	bank19,global,class=BANK19,space=1,delta=1
    40                           	psect	bank20,global,class=BANK20,space=1,delta=1
    41                           	psect	bank21,global,class=BANK21,space=1,delta=1
    42                           	psect	bank22,global,class=BANK22,space=1,delta=1
    43                           	psect	bank23,global,class=BANK23,space=1,delta=1
    44                           	psect	bank24,global,class=BANK24,space=1,delta=1
    45                           	psect	bank25,global,class=BANK25,space=1,delta=1
    46                           	psect	bank26,global,class=BANK26,space=1,delta=1
    47                           	psect	bank27,global,class=BANK27,space=1,delta=1
    48                           	psect	bank28,global,class=BANK28,space=1,delta=1
    49                           	psect	bank29,global,class=BANK29,space=1,delta=1
    50                           	psect	bank30,global,class=BANK30,space=1,delta=1
    51                           	psect	bank31,global,class=BANK31,space=1,delta=1
    52                           	psect	bank32,global,class=BANK32,space=1,delta=1
    53                           	psect	bank33,global,class=BANK33,space=1,delta=1
    54                           	psect	bank34,global,class=BANK34,space=1,delta=1
    55                           	psect	bank35,global,class=BANK35,space=1,delta=1
    56                           	psect	bank36,global,class=BANK36,space=1,delta=1
    57                           	psect	bank37,global,class=BANK37,space=1,delta=1
    58                           	psect	bank38,global,class=BANK38,space=1,delta=1
    59                           	psect	bank39,global,class=BANK39,space=1,delta=1
    60                           	psect	bank40,global,class=BANK40,space=1,delta=1
    61                           	psect	bank41,global,class=BANK41,space=1,delta=1
    62                           	psect	bank42,global,class=BANK42,space=1,delta=1
    63                           	psect	bank43,global,class=BANK43,space=1,delta=1
    64                           	psect	bank44,global,class=BANK44,space=1,delta=1
    65                           	psect	bank45,global,class=BANK45,space=1,delta=1
    66                           	psect	bank46,global,class=BANK46,space=1,delta=1
    67                           	psect	bank47,global,class=BANK47,space=1,delta=1
    68                           	psect	bank48,global,class=BANK48,space=1,delta=1
    69                           	psect	bank49,global,class=BANK49,space=1,delta=1
    70                           	psect	bank50,global,class=BANK50,space=1,delta=1
    71                           	psect	bank51,global,class=BANK51,space=1,delta=1
    72                           	psect	bank52,global,class=BANK52,space=1,delta=1
    73                           	psect	bank53,global,class=BANK53,space=1,delta=1
    74                           	psect	bank54,global,class=BANK54,space=1,delta=1
    75                           	psect	bank55,global,class=BANK55,space=1,delta=1
    76                           	psect	bank56,global,class=BANK56,space=1,delta=1
    77                           	psect	bank57,global,class=BANK57,space=1,delta=1
    78                           	psect	bank58,global,class=BANK58,space=1,delta=1
    79                           	psect	bank59,global,class=BANK59,space=1,delta=1
    80                           	psect	bank60,global,class=BANK60,space=1,delta=1
    81                           	psect	bank61,global,class=BANK61,space=1,delta=1
    82                           	psect	bank62,global,class=BANK62,space=1,delta=1
    83                           	psect	bank63,global,class=BANK63,space=1,delta=1
    84                           	psect	bigram,global,class=BIGRAM,space=1,delta=1
    85                           	psect	ram,global,class=RAM,space=1,delta=1
    86                           	psect	abs1,global,class=ABS1,space=1,delta=1
    87                           	psect	sfr0,global,class=SFR0,space=1,delta=1
    88                           	psect	sfr1,global,class=SFR1,space=1,delta=1
    89                           	psect	sfr2,global,class=SFR2,space=1,delta=1
    90                           	psect	sfr3,global,class=SFR3,space=1,delta=1
    91                           	psect	sfr4,global,class=SFR4,space=1,delta=1
    92                           	psect	sfr5,global,class=SFR5,space=1,delta=1
    93                           	psect	sfr6,global,class=SFR6,space=1,delta=1
    94                           	psect	sfr7,global,class=SFR7,space=1,delta=1
    95                           	psect	sfr8,global,class=SFR8,space=1,delta=1
    96                           	psect	sfr9,global,class=SFR9,space=1,delta=1
    97                           	psect	sfr10,global,class=SFR10,space=1,delta=1
    98                           	psect	sfr11,global,class=SFR11,space=1,delta=1
    99                           	psect	sfr12,global,class=SFR12,space=1,delta=1
   100                           	psect	sfr13,global,class=SFR13,space=1,delta=1
   101                           	psect	sfr14,global,class=SFR14,space=1,delta=1
   102                           	psect	sfr15,global,class=SFR15,space=1,delta=1
   103                           	psect	sfr16,global,class=SFR16,space=1,delta=1
   104                           	psect	sfr17,global,class=SFR17,space=1,delta=1
   105                           	psect	sfr18,global,class=SFR18,space=1,delta=1
   106                           	psect	sfr19,global,class=SFR19,space=1,delta=1
   107                           	psect	sfr20,global,class=SFR20,space=1,delta=1
   108                           	psect	sfr21,global,class=SFR21,space=1,delta=1
   109                           	psect	sfr22,global,class=SFR22,space=1,delta=1
   110                           	psect	sfr23,global,class=SFR23,space=1,delta=1
   111                           	psect	sfr24,global,class=SFR24,space=1,delta=1
   112                           	psect	sfr25,global,class=SFR25,space=1,delta=1
   113                           	psect	sfr26,global,class=SFR26,space=1,delta=1
   114                           	psect	sfr27,global,class=SFR27,space=1,delta=1
   115                           	psect	sfr28,global,class=SFR28,space=1,delta=1
   116                           	psect	sfr29,global,class=SFR29,space=1,delta=1
   117                           	psect	sfr30,global,class=SFR30,space=1,delta=1
   118                           	psect	sfr31,global,class=SFR31,space=1,delta=1
   119                           	psect	sfr32,global,class=SFR32,space=1,delta=1
   120                           	psect	sfr33,global,class=SFR33,space=1,delta=1
   121                           	psect	sfr34,global,class=SFR34,space=1,delta=1
   122                           	psect	sfr35,global,class=SFR35,space=1,delta=1
   123                           	psect	sfr36,global,class=SFR36,space=1,delta=1
   124                           	psect	sfr37,global,class=SFR37,space=1,delta=1
   125                           	psect	sfr38,global,class=SFR38,space=1,delta=1
   126                           	psect	sfr39,global,class=SFR39,space=1,delta=1
   127                           	psect	sfr40,global,class=SFR40,space=1,delta=1
   128                           	psect	sfr41,global,class=SFR41,space=1,delta=1
   129                           	psect	sfr42,global,class=SFR42,space=1,delta=1
   130                           	psect	sfr43,global,class=SFR43,space=1,delta=1
   131                           	psect	sfr44,global,class=SFR44,space=1,delta=1
   132                           	psect	sfr45,global,class=SFR45,space=1,delta=1
   133                           	psect	sfr46,global,class=SFR46,space=1,delta=1
   134                           	psect	sfr47,global,class=SFR47,space=1,delta=1
   135                           	psect	sfr48,global,class=SFR48,space=1,delta=1
   136                           	psect	sfr49,global,class=SFR49,space=1,delta=1
   137                           	psect	sfr50,global,class=SFR50,space=1,delta=1
   138                           	psect	sfr51,global,class=SFR51,space=1,delta=1
   139                           	psect	sfr52,global,class=SFR52,space=1,delta=1
   140                           	psect	sfr53,global,class=SFR53,space=1,delta=1
   141                           	psect	sfr54,global,class=SFR54,space=1,delta=1
   142                           	psect	sfr55,global,class=SFR55,space=1,delta=1
   143                           	psect	sfr56,global,class=SFR56,space=1,delta=1
   144                           	psect	sfr57,global,class=SFR57,space=1,delta=1
   145                           	psect	sfr58,global,class=SFR58,space=1,delta=1
   146                           	psect	sfr59,global,class=SFR59,space=1,delta=1
   147                           	psect	sfr60,global,class=SFR60,space=1,delta=1
   148                           	psect	sfr61,global,class=SFR61,space=1,delta=1
   149                           	psect	sfr62,global,class=SFR62,space=1,delta=1
   150                           	psect	sfr63,global,class=SFR63,space=1,delta=1
   151                           
   152                           	psect	config
   153                           
   154                           ; Config register CONFIG1 @ 0x8007
   155                           ;	External Oscillator mode selection bits
   156                           ;	FEXTOSC = OFF, Oscillator not enabled
   157                           ;	Power-up default value for COSC bits
   158                           ;	RSTOSC = HFINT32, HFINTOSC with OSCFRQ= 32 MHz and CDIV = 1:1
   159                           ;	Clock Out Enable bit
   160                           ;	CLKOUTEN = OFF, CLKOUT function is disabled; i/o or oscillator function on OSC2
   161                           ;	Clock Switch Enable bit
   162                           ;	CSWEN = OFF, The NOSC and NDIV bits cannot be changed by user software
   163                           ;	Fail-Safe Clock Monitor Enable bit
   164                           ;	FCMEN = ON, FSCM timer enabled
   165  8007                     	org	0
   166  8007  378C               	dw	14220
   167                           
   168                           ; Config register CONFIG2 @ 0x8008
   169                           ;	Master Clear Enable bit
   170                           ;	MCLRE = ON, MCLR pin is Master Clear function
   171                           ;	Power-up Timer Enable bit
   172                           ;	PWRTE = ON, PWRT enabled
   173                           ;	Low-Power BOR enable bit
   174                           ;	LPBOREN = OFF, ULPBOR disabled
   175                           ;	Brown-out reset enable bits
   176                           ;	BOREN = ON, Brown-out Reset Enabled, SBOREN bit is ignored
   177                           ;	Brown-out Reset Voltage Selection
   178                           ;	BORV = LO, Brown-out Reset Voltage (VBOR) set to 1.9V on LF, and 2.45V on F Devices
   179                           ;	Zero-cross detect disable
   180                           ;	ZCD = OFF, Zero-cross detect circuit is disabled at POR.
   181                           ;	Peripheral Pin Select one-way control
   182                           ;	PPS1WAY = OFF, The PPSLOCK bit can be set and cleared repeatedly by software
   183                           ;	Stack Overflow/Underflow Reset Enable bit
   184                           ;	STVREN = ON, Stack Overflow or Underflow will cause a reset
   185  8008                     	org	1
   186  8008  37FD               	dw	14333
   187                           
   188                           ; Config register CONFIG3 @ 0x8009
   189                           ;	WDT Period Select bits
   190                           ;	WDTCPS = WDTCPS_31, Divider ratio 1:65536; software control of WDTPS
   191                           ;	WDT operating mode
   192                           ;	WDTE = OFF, WDT Disabled, SWDTEN is ignored
   193                           ;	WDT Window Select bits
   194                           ;	WDTCWS = WDTCWS_7, window always open (100%); software control; keyed access not required
   195                           ;	WDT input clock selector
   196                           ;	WDTCCS = SC, Software Control
   197  8009                     	org	2
   198  8009  3F9F               	dw	16287
   199                           
   200                           ; Config register CONFIG4 @ 0x800A
   201                           ;	Boot Block Size Selection bits
   202                           ;	BBSIZE = BB512, 512 words boot block size
   203                           ;	Boot Block Enable bit
   204                           ;	BBEN = OFF, Boot Block disabled
   205                           ;	SAF Enable bit
   206                           ;	SAFEN = OFF, SAF disabled
   207                           ;	Application Block Write Protection bit
   208                           ;	WRTAPP = OFF, Application Block not write protected
   209                           ;	Boot Block Write Protection bit
   210                           ;	WRTB = OFF, Boot Block not write protected
   211                           ;	Configuration Register Write Protection bit
   212                           ;	WRTC = OFF, Configuration Register not write protected
   213                           ;	Storage Area Flash Write Protection bit
   214                           ;	WRTSAF = OFF, SAF not write protected
   215                           ;	Low Voltage Programming Enable bit
   216                           ;	LVP = ON, Low Voltage programming enabled. MCLR/Vpp pin function is MCLR.
   217  800A                     	org	3
   218  800A  3FFF               	dw	16383
   219                           
   220                           ; Config register CONFIG5 @ 0x800B
   221                           ;	UserNVM Program memory code protection bit
   222                           ;	CP = OFF, UserNVM code protection disabled
   223  800B                     	org	4
   224  800B  3FFF               	dw	16383
   225                           
   226                           	psect	reset_vec
   227  0000                     reset_vec:	
   228                           
   229                           ; No powerup routine
   230                           ; jump to start
   231  0000  3180  2816         	ljmp	start
   232                           
   233                           	psect	maintext
   234                           
   235                           ; Microchip MPLAB XC8 C Compiler V2.10
   236                           ; Copyright (C) 2019 Microchip Technology Inc.
   237                           ; Auto-generated runtime startup code for final link stage.
   238                           ;
   239                           ; Compiler options:
   240                           ;
   241                           ; -q --opt=none --chip=16f15356 \
   242                           ; -Mdist/default/production/PICing_and_Screaming.production.map \
   243                           ; -DXPRJ_default=default -L--defsym=__MPLAB_BUILD=1 --double=32 \
   244                           ; --float=32 --addrqual=ignore -IFrameworkHeaders -IProjectHeaders \
   245                           ; --warn=-3 --asmlist --summary=-psect,-class,+mem,-hex,+file \
   246                           ; --output=+inhx032 --runtime=+clear --runtime=+init --runtime=+keep \
   247                           ; --runtime=-osccal --runtime=-resetbits --runtime=-resetbits \
   248                           ; --runtime=-download --runtime=-stackcall --std=c99 \
   249                           ; --output=+elf:multilocs --stack=hybrid:auto:auto --summary=+xml \
   250                           ; --summarydir=dist/default/production/memoryfile.xml \
   251                           ; -oPICing_and_Screaming.production.elf \
   252                           ; --objdir=dist/default/production --outdir=dist/default/production \
   253                           ; build/default/production/FrameworkSource/ES_Port.p1 \
   254                           ; build/default/production/FrameworkSource/ES_Timers.p1 \
   255                           ; build/default/production/FrameworkSource/ES_LookupTables.p1 \
   256                           ; build/default/production/FrameworkSource/ES_CheckEvents.p1 \
   257                           ; build/default/production/FrameworkSource/ES_DeferRecall.p1 \
   258                           ; build/default/production/FrameworkSource/ES_Framework.p1 \
   259                           ; build/default/production/FrameworkSource/ES_Queue.p1 \
   260                           ; build/default/production/FrameworkSource/ES_PostList.p1 \
   261                           ; build/default/production/ProjectSource/main.p1 \
   262                           ; build/default/production/ProjectSource/EventCheckers.p1 \
   263                           ; build/default/production/ProjectSource/TestHarnessService0.p1 \
   264                           ; build/default/production/ProjectSource/ISR.p1 \
   265                           ; build/default/production/ProjectSource/dbprintf.p1 \
   266                           ; build/default/production/ProjectSource/ServoControl.p1 \
   267                           ; --errformat=%f:%l:%c: error: (%n) %s \
   268                           ; --warnformat=%f:%l:%c: warning: (%n) %s \
   269                           ; --msgformat=%f:%l:%c: advisory: (%n) %s
   270                           ;
   271  0000                     C	set	0
   272  0002                     Z	set	2
   273  0002                     PCL	set	2
   274  0000                     INDF	set	0
   275  000A                     
   276                           	psect	functab
   277  0000                     intlevel0:	
   278  0000                     intlevel1:	
   279  0000                     intlevel2:	
   280  0000                     intlevel3:	
   281  0000                     intlevel4:	
   282  0000                     intlevel5:	
   283                           
   284                           	psect	init
   285  0016                     start:	
   286                           
   287                           ;Initialize the stack pointer (FSR1)
   288                           ;Stack space: 020D2h-027EFh (1822 bytes)
   289  27EF                     
   290                           	psect	end_init
   291  0016  3180  2818         	ljmp	start_initialization	;jump to C runtime clear & initialization
   292                           
   293                           	psect	clrtext
   294  0000                     INDF0	set	0
   295  0001                     INDF1	set	1
   296  0002                     PCL	set	2
   297  0003                     STATUS	set	3
   298  0004                     FSR0L	set	4
   299  0005                     FSR0H	set	5
   300  0006                     FSR1L	set	6
   301  0007                     FSR1H	set	7
   302  0008                     BSR	set	8
   303  0009                     WREG	set	9
   304  000A                     PCLATH	set	10
   305  000B                     INTCON	set	11
   306                           
   307                           	psect	stack
   308  20D2                     ___sp:	
   309  20D2                     	ds	911
   310  2461                     ___int_sp:	
   311  2461                     	ds	911


Microchip Technology PIC Macro Assembler V2.10 build 88905656 
Symbol Table                                                                                               Mon May 11 00:29:13 2020

               ___sp 20D2                 _main 0291                 start 0016  start_initialization 0018  
          ___stackhi 27EF            ___stacklo 20D2             ___int_sp 2461             intlevel0 0000  
           intlevel1 0000             intlevel2 0000             intlevel3 0000             intlevel4 0000  
           intlevel5 0000             reset_vec 0000  
